:100000000C9434000C943E000C943E000C943E0082
:100010000C943E000C943E000C943E000C943E0068
:100020000C943E000C943E000C943E000C943E0058
:100030000C943E000C943E000C943E000C943E0048
:100040000C943E000C943E000C94BC000C943E00BA
:100050000C943E000C943E000C943E000C943E0028
:100060000C943E000C943E0011241FBECFEFD8E04C
:10007000DEBFCDBF0E9440000C94EF000C94000046
:10008000CF93DF9300D0CDB7DEB784E290E024E2D7
:1000900030E0F90120812062FC0120830E945D0094
:1000A00078941A82198289819A810A97D4F7898172
:1000B0009A8101969A838983F6CFCF93DF9300D0FC
:1000C000CDB7DEB787E690E09A83898385EC90E030
:1000D00029813A81232F3327FC01208384EC90E08F
:1000E0002981FC01208381EC90E028E9FC01208338
:1000F00082EC90E022EC30E0F90120812E60FC01DE
:10010000208300000F900F90DF91CF910895CF933F
:10011000DF931F92CDB7DEB7898380EC90E0FC01BE
:100120008081882F90E08072992721E0892B09F047
:1001300020E0222309F0F1CF86EC90E02981FC0138
:10014000208300000F90DF91CF910895CF93DF932C
:10015000CDB7DEB780EC90E0FC0180818095881FF0
:100160008827881F882309F0F5CF86EC90E0FC01F2
:100170008081DF91CF9108951F920F9200905F00D0
:100180000F9211242F933F934F935F936F937F931D
:100190008F939F93AF93BF93EF93FF93CF93DF938F
:1001A0001F92CDB7DEB70E94A600898389810E9485
:1001B000870000000F90DF91CF91FF91EF91BF91E9
:1001C000AF919F918F917F916F915F914F913F91EF
:1001D0002F910F9000925F000F901F901895F89448
:0201E000FFCF4F
:00000001FF
